{
  "address": "0x2F939Fd829f84BfE7C3d13BC02C6729f9DA5CF28",
  "abi": [
    {
      "anonymous": false,
      "inputs": [
        {
          "indexed": true,
          "internalType": "address",
          "name": "previousOwner",
          "type": "address"
        },
        {
          "indexed": true,
          "internalType": "address",
          "name": "newOwner",
          "type": "address"
        }
      ],
      "name": "OwnershipTransferred",
      "type": "event"
    },
    {
      "inputs": [
        {
          "internalType": "address",
          "name": "driver",
          "type": "address"
        },
        {
          "components": [
            {
              "internalType": "string",
              "name": "vehicle_no",
              "type": "string"
            },
            {
              "internalType": "string",
              "name": "RC",
              "type": "string"
            },
            {
              "internalType": "string",
              "name": "vehicleImages",
              "type": "string"
            },
            {
              "internalType": "enum Vehicle.VEHICLE_TYPE",
              "name": "vehicleType",
              "type": "uint8"
            },
            {
              "internalType": "address",
              "name": "driver",
              "type": "address"
            }
          ],
          "internalType": "struct Vehicle.VEHICLE_INFO",
          "name": "_vehicle",
          "type": "tuple"
        }
      ],
      "name": "addVehicle",
      "outputs": [],
      "stateMutability": "nonpayable",
      "type": "function"
    },
    {
      "inputs": [
        {
          "internalType": "uint256",
          "name": "_rideId",
          "type": "uint256"
        },
        {
          "internalType": "enum Ride.appUser",
          "name": "_wasCancelledBy",
          "type": "uint8"
        },
        {
          "internalType": "string",
          "name": "_timestamp",
          "type": "string"
        }
      ],
      "name": "cancelRide",
      "outputs": [],
      "stateMutability": "nonpayable",
      "type": "function"
    },
    {
      "inputs": [
        {
          "internalType": "uint256",
          "name": "_rideId",
          "type": "uint256"
        },
        {
          "internalType": "string",
          "name": "_timestamp",
          "type": "string"
        }
      ],
      "name": "completeRide",
      "outputs": [],
      "stateMutability": "nonpayable",
      "type": "function"
    },
    {
      "inputs": [
        {
          "components": [
            {
              "internalType": "address",
              "name": "customer",
              "type": "address"
            },
            {
              "internalType": "address",
              "name": "driver",
              "type": "address"
            }
          ],
          "internalType": "struct Ride.USERS",
          "name": "_user",
          "type": "tuple"
        },
        {
          "components": [
            {
              "internalType": "bool",
              "name": "isCancelled",
              "type": "bool"
            },
            {
              "internalType": "bool",
              "name": "isComplete",
              "type": "bool"
            },
            {
              "internalType": "bool",
              "name": "isConfirmed",
              "type": "bool"
            },
            {
              "internalType": "enum Ride.appUser",
              "name": "wasCancelledBy",
              "type": "uint8"
            }
          ],
          "internalType": "struct Ride.STATUS",
          "name": "_status",
          "type": "tuple"
        },
        {
          "components": [
            {
              "internalType": "string",
              "name": "pickup",
              "type": "string"
            },
            {
              "internalType": "string",
              "name": "destination",
              "type": "string"
            },
            {
              "internalType": "uint256",
              "name": "distance",
              "type": "uint256"
            },
            {
              "internalType": "uint256",
              "name": "price",
              "type": "uint256"
            }
          ],
          "internalType": "struct Ride.RIDE_DETAILS",
          "name": "_details",
          "type": "tuple"
        },
        {
          "internalType": "string",
          "name": "_timestamp",
          "type": "string"
        }
      ],
      "name": "confirmRide",
      "outputs": [
        {
          "internalType": "uint256",
          "name": "",
          "type": "uint256"
        }
      ],
      "stateMutability": "nonpayable",
      "type": "function"
    },
    {
      "inputs": [
        {
          "internalType": "uint256[]",
          "name": "rideIds",
          "type": "uint256[]"
        }
      ],
      "name": "getAllRides",
      "outputs": [
        {
          "components": [
            {
              "internalType": "uint256",
              "name": "id",
              "type": "uint256"
            },
            {
              "components": [
                {
                  "internalType": "address",
                  "name": "customer",
                  "type": "address"
                },
                {
                  "internalType": "address",
                  "name": "driver",
                  "type": "address"
                }
              ],
              "internalType": "struct Ride.USERS",
              "name": "users",
              "type": "tuple"
            },
            {
              "components": [
                {
                  "internalType": "bool",
                  "name": "isCancelled",
                  "type": "bool"
                },
                {
                  "internalType": "bool",
                  "name": "isComplete",
                  "type": "bool"
                },
                {
                  "internalType": "bool",
                  "name": "isConfirmed",
                  "type": "bool"
                },
                {
                  "internalType": "enum Ride.appUser",
                  "name": "wasCancelledBy",
                  "type": "uint8"
                }
              ],
              "internalType": "struct Ride.STATUS",
              "name": "status",
              "type": "tuple"
            },
            {
              "components": [
                {
                  "internalType": "string",
                  "name": "pickup",
                  "type": "string"
                },
                {
                  "internalType": "string",
                  "name": "destination",
                  "type": "string"
                },
                {
                  "internalType": "uint256",
                  "name": "distance",
                  "type": "uint256"
                },
                {
                  "internalType": "uint256",
                  "name": "price",
                  "type": "uint256"
                }
              ],
              "internalType": "struct Ride.RIDE_DETAILS",
              "name": "ride",
              "type": "tuple"
            },
            {
              "components": [
                {
                  "internalType": "string",
                  "name": "vehicle_no",
                  "type": "string"
                },
                {
                  "internalType": "string",
                  "name": "RC",
                  "type": "string"
                },
                {
                  "internalType": "string",
                  "name": "vehicleImages",
                  "type": "string"
                },
                {
                  "internalType": "enum Vehicle.VEHICLE_TYPE",
                  "name": "vehicleType",
                  "type": "uint8"
                },
                {
                  "internalType": "address",
                  "name": "driver",
                  "type": "address"
                }
              ],
              "internalType": "struct Vehicle.VEHICLE_INFO",
              "name": "vehicle",
              "type": "tuple"
            },
            {
              "internalType": "string",
              "name": "timestamp",
              "type": "string"
            }
          ],
          "internalType": "struct Ride.RIDE[]",
          "name": "",
          "type": "tuple[]"
        }
      ],
      "stateMutability": "view",
      "type": "function"
    },
    {
      "inputs": [
        {
          "internalType": "uint256",
          "name": "_rideId",
          "type": "uint256"
        }
      ],
      "name": "getRide",
      "outputs": [
        {
          "components": [
            {
              "internalType": "uint256",
              "name": "id",
              "type": "uint256"
            },
            {
              "components": [
                {
                  "internalType": "address",
                  "name": "customer",
                  "type": "address"
                },
                {
                  "internalType": "address",
                  "name": "driver",
                  "type": "address"
                }
              ],
              "internalType": "struct Ride.USERS",
              "name": "users",
              "type": "tuple"
            },
            {
              "components": [
                {
                  "internalType": "bool",
                  "name": "isCancelled",
                  "type": "bool"
                },
                {
                  "internalType": "bool",
                  "name": "isComplete",
                  "type": "bool"
                },
                {
                  "internalType": "bool",
                  "name": "isConfirmed",
                  "type": "bool"
                },
                {
                  "internalType": "enum Ride.appUser",
                  "name": "wasCancelledBy",
                  "type": "uint8"
                }
              ],
              "internalType": "struct Ride.STATUS",
              "name": "status",
              "type": "tuple"
            },
            {
              "components": [
                {
                  "internalType": "string",
                  "name": "pickup",
                  "type": "string"
                },
                {
                  "internalType": "string",
                  "name": "destination",
                  "type": "string"
                },
                {
                  "internalType": "uint256",
                  "name": "distance",
                  "type": "uint256"
                },
                {
                  "internalType": "uint256",
                  "name": "price",
                  "type": "uint256"
                }
              ],
              "internalType": "struct Ride.RIDE_DETAILS",
              "name": "ride",
              "type": "tuple"
            },
            {
              "components": [
                {
                  "internalType": "string",
                  "name": "vehicle_no",
                  "type": "string"
                },
                {
                  "internalType": "string",
                  "name": "RC",
                  "type": "string"
                },
                {
                  "internalType": "string",
                  "name": "vehicleImages",
                  "type": "string"
                },
                {
                  "internalType": "enum Vehicle.VEHICLE_TYPE",
                  "name": "vehicleType",
                  "type": "uint8"
                },
                {
                  "internalType": "address",
                  "name": "driver",
                  "type": "address"
                }
              ],
              "internalType": "struct Vehicle.VEHICLE_INFO",
              "name": "vehicle",
              "type": "tuple"
            },
            {
              "internalType": "string",
              "name": "timestamp",
              "type": "string"
            }
          ],
          "internalType": "struct Ride.RIDE",
          "name": "",
          "type": "tuple"
        }
      ],
      "stateMutability": "view",
      "type": "function"
    },
    {
      "inputs": [],
      "name": "getRideCount",
      "outputs": [
        {
          "internalType": "uint256",
          "name": "",
          "type": "uint256"
        }
      ],
      "stateMutability": "view",
      "type": "function"
    },
    {
      "inputs": [
        {
          "internalType": "address",
          "name": "driver",
          "type": "address"
        }
      ],
      "name": "getVehicle",
      "outputs": [
        {
          "components": [
            {
              "internalType": "string",
              "name": "vehicle_no",
              "type": "string"
            },
            {
              "internalType": "string",
              "name": "RC",
              "type": "string"
            },
            {
              "internalType": "string",
              "name": "vehicleImages",
              "type": "string"
            },
            {
              "internalType": "enum Vehicle.VEHICLE_TYPE",
              "name": "vehicleType",
              "type": "uint8"
            },
            {
              "internalType": "address",
              "name": "driver",
              "type": "address"
            }
          ],
          "internalType": "struct Vehicle.VEHICLE_INFO",
          "name": "",
          "type": "tuple"
        }
      ],
      "stateMutability": "view",
      "type": "function"
    },
    {
      "inputs": [],
      "name": "owner",
      "outputs": [
        {
          "internalType": "address",
          "name": "",
          "type": "address"
        }
      ],
      "stateMutability": "view",
      "type": "function"
    },
    {
      "inputs": [],
      "name": "renounceOwnership",
      "outputs": [],
      "stateMutability": "nonpayable",
      "type": "function"
    },
    {
      "inputs": [
        {
          "internalType": "address",
          "name": "newOwner",
          "type": "address"
        }
      ],
      "name": "transferOwnership",
      "outputs": [],
      "stateMutability": "nonpayable",
      "type": "function"
    },
    {
      "inputs": [
        {
          "internalType": "address",
          "name": "driver",
          "type": "address"
        },
        {
          "components": [
            {
              "internalType": "string",
              "name": "vehicle_no",
              "type": "string"
            },
            {
              "internalType": "string",
              "name": "RC",
              "type": "string"
            },
            {
              "internalType": "string",
              "name": "vehicleImages",
              "type": "string"
            },
            {
              "internalType": "enum Vehicle.VEHICLE_TYPE",
              "name": "vehicleType",
              "type": "uint8"
            },
            {
              "internalType": "address",
              "name": "driver",
              "type": "address"
            }
          ],
          "internalType": "struct Vehicle.VEHICLE_INFO",
          "name": "_vehicle",
          "type": "tuple"
        }
      ],
      "name": "updateVehicle",
      "outputs": [],
      "stateMutability": "nonpayable",
      "type": "function"
    }
  ],
  "transactionHash": "0x1d766d5a3b045b4caefd104a6014d91b557da0231da00dd0cbf41e2dba0b20bf",
  "args": [],
  "numDeployments": 1,
  "solcInputHash": "6c4d168276b30f18bee757212e96e38b",
  "bytecode": "0x60806040523480156200001157600080fd5b5062000032620000266200003860201b60201c565b6200004060201b60201c565b62000104565b600033905090565b60008060009054906101000a900473ffffffffffffffffffffffffffffffffffffffff169050816000806101000a81548173ffffffffffffffffffffffffffffffffffffffff021916908373ffffffffffffffffffffffffffffffffffffffff1602179055508173ffffffffffffffffffffffffffffffffffffffff168173ffffffffffffffffffffffffffffffffffffffff167f8be0079c531659141344cd1fd0a4f28419497f9722a3daafe3b4186f6b6457e060405160405180910390a35050565b6142e380620001146000396000f3fe608060405234801561001057600080fd5b50600436106100b45760003560e01c80637aa9d3bb116100715780637aa9d3bb146101635780637c7b0ff4146101935780638959a5d1146101c35780638da5cb5b146101e1578063a93ab101146101ff578063f2fde38b1461022f576100b4565b80631f0e008c146100b957806349d88383146100e957806359412a851461010557806364116aa8146101215780636a361e671461013d578063715018a614610159575b600080fd5b6100d360048036038101906100ce91906137c2565b61024b565b6040516100e09190613ef6565b60405180910390f35b61010360048036038101906100fe919061372d565b610898565b005b61011f600480360381019061011a919061387f565b6109e7565b005b61013b6004803603810190610136919061372d565b6113d8565b005b610157600480360381019061015291906138e6565b611527565b005b610161611e97565b005b61017d60048036038101906101789190613781565b611eab565b60405161018a9190613e50565b60405180910390f35b6101ad60048036038101906101a89190613856565b6125ca565b6040516101ba9190613eb2565b60405180910390f35b6101cb612c32565b6040516101d89190613ef6565b60405180910390f35b6101e9612c3c565b6040516101f69190613e35565b60405180910390f35b61021960048036038101906102149190613704565b612c65565b6040516102269190613ed4565b60405180910390f35b61024960048036038101906102449190613704565b612f59565b005b6000600260008154809291906102609061410a565b919050555060008590506000859050600085905061027c613127565b600254816000018181525050838160200181905250828160400181905250818160600181905250600160008a6020015173ffffffffffffffffffffffffffffffffffffffff1673ffffffffffffffffffffffffffffffffffffffff1681526020019081526020016000206040518060a0016040529081600082018054610301906140d8565b80601f016020809104026020016040519081016040528092919081815260200182805461032d906140d8565b801561037a5780601f1061034f5761010080835404028352916020019161037a565b820191906000526020600020905b81548152906001019060200180831161035d57829003601f168201915b50505050508152602001600182018054610393906140d8565b80601f01602080910402602001604051908101604052809291908181526020018280546103bf906140d8565b801561040c5780601f106103e15761010080835404028352916020019161040c565b820191906000526020600020905b8154815290600101906020018083116103ef57829003601f168201915b50505050508152602001600282018054610425906140d8565b80601f0160208091040260200160405190810160405280929190818152602001828054610451906140d8565b801561049e5780601f106104735761010080835404028352916020019161049e565b820191906000526020600020905b81548152906001019060200180831161048157829003601f168201915b505050505081526020016003820160009054906101000a900460ff1660038111156104f2577f4e487b7100000000000000000000000000000000000000000000000000000000600052602160045260246000fd5b600381111561052a577f4e487b7100000000000000000000000000000000000000000000000000000000600052602160045260246000fd5b81526020016003820160019054906101000a900473ffffffffffffffffffffffffffffffffffffffff1673ffffffffffffffffffffffffffffffffffffffff1673ffffffffffffffffffffffffffffffffffffffff16815250508160800181905250858160a00181905250806003600060025481526020019081526020016000206000820151816000015560208201518160010160008201518160000160006101000a81548173ffffffffffffffffffffffffffffffffffffffff021916908373ffffffffffffffffffffffffffffffffffffffff16021790555060208201518160010160006101000a81548173ffffffffffffffffffffffffffffffffffffffff021916908373ffffffffffffffffffffffffffffffffffffffff160217905550505060408201518160030160008201518160000160006101000a81548160ff02191690831515021790555060208201518160000160016101000a81548160ff02191690831515021790555060408201518160000160026101000a81548160ff02191690831515021790555060608201518160000160036101000a81548160ff02191690836002811115610708577f4e487b7100000000000000000000000000000000000000000000000000000000600052602160045260246000fd5b021790555050506060820151816004016000820151816000019080519060200190610734929190613175565b506020820151816001019080519060200190610751929190613175565b5060408201518160020155606082015181600301555050608082015181600801600082015181600001908051906020019061078d929190613175565b5060208201518160010190805190602001906107aa929190613175565b5060408201518160020190805190602001906107c7929190613175565b5060608201518160030160006101000a81548160ff02191690836003811115610819577f4e487b7100000000000000000000000000000000000000000000000000000000600052602160045260246000fd5b021790555060808201518160030160016101000a81548173ffffffffffffffffffffffffffffffffffffffff021916908373ffffffffffffffffffffffffffffffffffffffff160217905550505060a082015181600c019080519060200190610883929190613175565b50905050600254945050505050949350505050565b6108a0612fdd565b6108a86131fb565b81905080600160008573ffffffffffffffffffffffffffffffffffffffff1673ffffffffffffffffffffffffffffffffffffffff1681526020019081526020016000206000820151816000019080519060200190610907929190613175565b506020820151816001019080519060200190610924929190613175565b506040820151816002019080519060200190610941929190613175565b5060608201518160030160006101000a81548160ff02191690836003811115610993577f4e487b7100000000000000000000000000000000000000000000000000000000600052602160045260246000fd5b021790555060808201518160030160016101000a81548173ffffffffffffffffffffffffffffffffffffffff021916908373ffffffffffffffffffffffffffffffffffffffff160217905550905050505050565b6000600360008581526020019081526020016000206040518060c001604052908160008201548152602001600182016040518060400160405290816000820160009054906101000a900473ffffffffffffffffffffffffffffffffffffffff1673ffffffffffffffffffffffffffffffffffffffff1673ffffffffffffffffffffffffffffffffffffffff1681526020016001820160009054906101000a900473ffffffffffffffffffffffffffffffffffffffff1673ffffffffffffffffffffffffffffffffffffffff1673ffffffffffffffffffffffffffffffffffffffff16815250508152602001600382016040518060800160405290816000820160009054906101000a900460ff161515151581526020016000820160019054906101000a900460ff161515151581526020016000820160029054906101000a900460ff161515151581526020016000820160039054906101000a900460ff166002811115610b7d577f4e487b7100000000000000000000000000000000000000000000000000000000600052602160045260246000fd5b6002811115610bb5577f4e487b7100000000000000000000000000000000000000000000000000000000600052602160045260246000fd5b81525050815260200160048201604051806080016040529081600082018054610bdd906140d8565b80601f0160208091040260200160405190810160405280929190818152602001828054610c09906140d8565b8015610c565780601f10610c2b57610100808354040283529160200191610c56565b820191906000526020600020905b815481529060010190602001808311610c3957829003601f168201915b50505050508152602001600182018054610c6f906140d8565b80601f0160208091040260200160405190810160405280929190818152602001828054610c9b906140d8565b8015610ce85780601f10610cbd57610100808354040283529160200191610ce8565b820191906000526020600020905b815481529060010190602001808311610ccb57829003601f168201915b50505050508152602001600282015481526020016003820154815250508152602001600882016040518060a0016040529081600082018054610d29906140d8565b80601f0160208091040260200160405190810160405280929190818152602001828054610d55906140d8565b8015610da25780601f10610d7757610100808354040283529160200191610da2565b820191906000526020600020905b815481529060010190602001808311610d8557829003601f168201915b50505050508152602001600182018054610dbb906140d8565b80601f0160208091040260200160405190810160405280929190818152602001828054610de7906140d8565b8015610e345780601f10610e0957610100808354040283529160200191610e34565b820191906000526020600020905b815481529060010190602001808311610e1757829003601f168201915b50505050508152602001600282018054610e4d906140d8565b80601f0160208091040260200160405190810160405280929190818152602001828054610e79906140d8565b8015610ec65780601f10610e9b57610100808354040283529160200191610ec6565b820191906000526020600020905b815481529060010190602001808311610ea957829003601f168201915b505050505081526020016003820160009054906101000a900460ff166003811115610f1a577f4e487b7100000000000000000000000000000000000000000000000000000000600052602160045260246000fd5b6003811115610f52577f4e487b7100000000000000000000000000000000000000000000000000000000600052602160045260246000fd5b81526020016003820160019054906101000a900473ffffffffffffffffffffffffffffffffffffffff1673ffffffffffffffffffffffffffffffffffffffff1673ffffffffffffffffffffffffffffffffffffffff16815250508152602001600c82018054610fc0906140d8565b80601f0160208091040260200160405190810160405280929190818152602001828054610fec906140d8565b80156110395780601f1061100e57610100808354040283529160200191611039565b820191906000526020600020905b81548152906001019060200180831161101c57829003601f168201915b505050505081525050905060018160400151600001901515908115158152505082816040015160600190600281111561109b577f4e487b7100000000000000000000000000000000000000000000000000000000600052602160045260246000fd5b908160028111156110d5577f4e487b7100000000000000000000000000000000000000000000000000000000600052602160045260246000fd5b81525050818160a0018190525080600360008681526020019081526020016000206000820151816000015560208201518160010160008201518160000160006101000a81548173ffffffffffffffffffffffffffffffffffffffff021916908373ffffffffffffffffffffffffffffffffffffffff16021790555060208201518160010160006101000a81548173ffffffffffffffffffffffffffffffffffffffff021916908373ffffffffffffffffffffffffffffffffffffffff160217905550505060408201518160030160008201518160000160006101000a81548160ff02191690831515021790555060208201518160000160016101000a81548160ff02191690831515021790555060408201518160000160026101000a81548160ff02191690831515021790555060608201518160000160036101000a81548160ff02191690836002811115611253577f4e487b7100000000000000000000000000000000000000000000000000000000600052602160045260246000fd5b02179055505050606082015181600401600082015181600001908051906020019061127f929190613175565b50602082015181600101908051906020019061129c929190613175565b506040820151816002015560608201518160030155505060808201518160080160008201518160000190805190602001906112d8929190613175565b5060208201518160010190805190602001906112f5929190613175565b506040820151816002019080519060200190611312929190613175565b5060608201518160030160006101000a81548160ff02191690836003811115611364577f4e487b7100000000000000000000000000000000000000000000000000000000600052602160045260246000fd5b021790555060808201518160030160016101000a81548173ffffffffffffffffffffffffffffffffffffffff021916908373ffffffffffffffffffffffffffffffffffffffff160217905550505060a082015181600c0190805190602001906113ce929190613175565b5090505050505050565b6113e0612fdd565b6113e86131fb565b81905080600160008573ffffffffffffffffffffffffffffffffffffffff1673ffffffffffffffffffffffffffffffffffffffff1681526020019081526020016000206000820151816000019080519060200190611447929190613175565b506020820151816001019080519060200190611464929190613175565b506040820151816002019080519060200190611481929190613175565b5060608201518160030160006101000a81548160ff021916908360038111156114d3577f4e487b7100000000000000000000000000000000000000000000000000000000600052602160045260246000fd5b021790555060808201518160030160016101000a81548173ffffffffffffffffffffffffffffffffffffffff021916908373ffffffffffffffffffffffffffffffffffffffff160217905550905050505050565b6000600360008481526020019081526020016000206040518060c001604052908160008201548152602001600182016040518060400160405290816000820160009054906101000a900473ffffffffffffffffffffffffffffffffffffffff1673ffffffffffffffffffffffffffffffffffffffff1673ffffffffffffffffffffffffffffffffffffffff1681526020016001820160009054906101000a900473ffffffffffffffffffffffffffffffffffffffff1673ffffffffffffffffffffffffffffffffffffffff1673ffffffffffffffffffffffffffffffffffffffff16815250508152602001600382016040518060800160405290816000820160009054906101000a900460ff161515151581526020016000820160019054906101000a900460ff161515151581526020016000820160029054906101000a900460ff161515151581526020016000820160039054906101000a900460ff1660028111156116bd577f4e487b7100000000000000000000000000000000000000000000000000000000600052602160045260246000fd5b60028111156116f5577f4e487b7100000000000000000000000000000000000000000000000000000000600052602160045260246000fd5b8152505081526020016004820160405180608001604052908160008201805461171d906140d8565b80601f0160208091040260200160405190810160405280929190818152602001828054611749906140d8565b80156117965780601f1061176b57610100808354040283529160200191611796565b820191906000526020600020905b81548152906001019060200180831161177957829003601f168201915b505050505081526020016001820180546117af906140d8565b80601f01602080910402602001604051908101604052809291908181526020018280546117db906140d8565b80156118285780601f106117fd57610100808354040283529160200191611828565b820191906000526020600020905b81548152906001019060200180831161180b57829003601f168201915b50505050508152602001600282015481526020016003820154815250508152602001600882016040518060a0016040529081600082018054611869906140d8565b80601f0160208091040260200160405190810160405280929190818152602001828054611895906140d8565b80156118e25780601f106118b7576101008083540402835291602001916118e2565b820191906000526020600020905b8154815290600101906020018083116118c557829003601f168201915b505050505081526020016001820180546118fb906140d8565b80601f0160208091040260200160405190810160405280929190818152602001828054611927906140d8565b80156119745780601f1061194957610100808354040283529160200191611974565b820191906000526020600020905b81548152906001019060200180831161195757829003601f168201915b5050505050815260200160028201805461198d906140d8565b80601f01602080910402602001604051908101604052809291908181526020018280546119b9906140d8565b8015611a065780601f106119db57610100808354040283529160200191611a06565b820191906000526020600020905b8154815290600101906020018083116119e957829003601f168201915b505050505081526020016003820160009054906101000a900460ff166003811115611a5a577f4e487b7100000000000000000000000000000000000000000000000000000000600052602160045260246000fd5b6003811115611a92577f4e487b7100000000000000000000000000000000000000000000000000000000600052602160045260246000fd5b81526020016003820160019054906101000a900473ffffffffffffffffffffffffffffffffffffffff1673ffffffffffffffffffffffffffffffffffffffff1673ffffffffffffffffffffffffffffffffffffffff16815250508152602001600c82018054611b00906140d8565b80601f0160208091040260200160405190810160405280929190818152602001828054611b2c906140d8565b8015611b795780601f10611b4e57610100808354040283529160200191611b79565b820191906000526020600020905b815481529060010190602001808311611b5c57829003601f168201915b5050505050815250509050600181604001516020019015159081151581525050818160a0018190525080600360008581526020019081526020016000206000820151816000015560208201518160010160008201518160000160006101000a81548173ffffffffffffffffffffffffffffffffffffffff021916908373ffffffffffffffffffffffffffffffffffffffff16021790555060208201518160010160006101000a81548173ffffffffffffffffffffffffffffffffffffffff021916908373ffffffffffffffffffffffffffffffffffffffff160217905550505060408201518160030160008201518160000160006101000a81548160ff02191690831515021790555060208201518160000160016101000a81548160ff02191690831515021790555060408201518160000160026101000a81548160ff02191690831515021790555060608201518160000160036101000a81548160ff02191690836002811115611d13577f4e487b7100000000000000000000000000000000000000000000000000000000600052602160045260246000fd5b021790555050506060820151816004016000820151816000019080519060200190611d3f929190613175565b506020820151816001019080519060200190611d5c929190613175565b50604082015181600201556060820151816003015550506080820151816008016000820151816000019080519060200190611d98929190613175565b506020820151816001019080519060200190611db5929190613175565b506040820151816002019080519060200190611dd2929190613175565b5060608201518160030160006101000a81548160ff02191690836003811115611e24577f4e487b7100000000000000000000000000000000000000000000000000000000600052602160045260246000fd5b021790555060808201518160030160016101000a81548173ffffffffffffffffffffffffffffffffffffffff021916908373ffffffffffffffffffffffffffffffffffffffff160217905550505060a082015181600c019080519060200190611e8e929190613175565b50905050505050565b611e9f612fdd565b611ea9600061305b565b565b6060806000805b84518110156125bf576000858281518110611ef6577f4e487b7100000000000000000000000000000000000000000000000000000000600052603260045260246000fd5b60200260200101519050600360008281526020019081526020016000206040518060c001604052908160008201548152602001600182016040518060400160405290816000820160009054906101000a900473ffffffffffffffffffffffffffffffffffffffff1673ffffffffffffffffffffffffffffffffffffffff1673ffffffffffffffffffffffffffffffffffffffff1681526020016001820160009054906101000a900473ffffffffffffffffffffffffffffffffffffffff1673ffffffffffffffffffffffffffffffffffffffff1673ffffffffffffffffffffffffffffffffffffffff16815250508152602001600382016040518060800160405290816000820160009054906101000a900460ff161515151581526020016000820160019054906101000a900460ff161515151581526020016000820160029054906101000a900460ff161515151581526020016000820160039054906101000a900460ff166002811115612094577f4e487b7100000000000000000000000000000000000000000000000000000000600052602160045260246000fd5b60028111156120cc577f4e487b7100000000000000000000000000000000000000000000000000000000600052602160045260246000fd5b815250508152602001600482016040518060800160405290816000820180546120f4906140d8565b80601f0160208091040260200160405190810160405280929190818152602001828054612120906140d8565b801561216d5780601f106121425761010080835404028352916020019161216d565b820191906000526020600020905b81548152906001019060200180831161215057829003601f168201915b50505050508152602001600182018054612186906140d8565b80601f01602080910402602001604051908101604052809291908181526020018280546121b2906140d8565b80156121ff5780601f106121d4576101008083540402835291602001916121ff565b820191906000526020600020905b8154815290600101906020018083116121e257829003601f168201915b50505050508152602001600282015481526020016003820154815250508152602001600882016040518060a0016040529081600082018054612240906140d8565b80601f016020809104026020016040519081016040528092919081815260200182805461226c906140d8565b80156122b95780601f1061228e576101008083540402835291602001916122b9565b820191906000526020600020905b81548152906001019060200180831161229c57829003601f168201915b505050505081526020016001820180546122d2906140d8565b80601f01602080910402602001604051908101604052809291908181526020018280546122fe906140d8565b801561234b5780601f106123205761010080835404028352916020019161234b565b820191906000526020600020905b81548152906001019060200180831161232e57829003601f168201915b50505050508152602001600282018054612364906140d8565b80601f0160208091040260200160405190810160405280929190818152602001828054612390906140d8565b80156123dd5780601f106123b2576101008083540402835291602001916123dd565b820191906000526020600020905b8154815290600101906020018083116123c057829003601f168201915b505050505081526020016003820160009054906101000a900460ff166003811115612431577f4e487b7100000000000000000000000000000000000000000000000000000000600052602160045260246000fd5b6003811115612469577f4e487b7100000000000000000000000000000000000000000000000000000000600052602160045260246000fd5b81526020016003820160019054906101000a900473ffffffffffffffffffffffffffffffffffffffff1673ffffffffffffffffffffffffffffffffffffffff1673ffffffffffffffffffffffffffffffffffffffff16815250508152602001600c820180546124d7906140d8565b80601f0160208091040260200160405190810160405280929190818152602001828054612503906140d8565b80156125505780601f1061252557610100808354040283529160200191612550565b820191906000526020600020905b81548152906001019060200180831161253357829003601f168201915b505050505081525050848481518110612592577f4e487b7100000000000000000000000000000000000000000000000000000000600052603260045260246000fd5b602002602001018190525082806125a89061410a565b9350505080806125b79061410a565b915050611eb2565b508192505050919050565b6125d2613127565b600360008381526020019081526020016000206040518060c001604052908160008201548152602001600182016040518060400160405290816000820160009054906101000a900473ffffffffffffffffffffffffffffffffffffffff1673ffffffffffffffffffffffffffffffffffffffff1673ffffffffffffffffffffffffffffffffffffffff1681526020016001820160009054906101000a900473ffffffffffffffffffffffffffffffffffffffff1673ffffffffffffffffffffffffffffffffffffffff1673ffffffffffffffffffffffffffffffffffffffff16815250508152602001600382016040518060800160405290816000820160009054906101000a900460ff161515151581526020016000820160019054906101000a900460ff161515151581526020016000820160029054906101000a900460ff161515151581526020016000820160039054906101000a900460ff166002811115612766577f4e487b7100000000000000000000000000000000000000000000000000000000600052602160045260246000fd5b600281111561279e577f4e487b7100000000000000000000000000000000000000000000000000000000600052602160045260246000fd5b815250508152602001600482016040518060800160405290816000820180546127c6906140d8565b80601f01602080910402602001604051908101604052809291908181526020018280546127f2906140d8565b801561283f5780601f106128145761010080835404028352916020019161283f565b820191906000526020600020905b81548152906001019060200180831161282257829003601f168201915b50505050508152602001600182018054612858906140d8565b80601f0160208091040260200160405190810160405280929190818152602001828054612884906140d8565b80156128d15780601f106128a6576101008083540402835291602001916128d1565b820191906000526020600020905b8154815290600101906020018083116128b457829003601f168201915b50505050508152602001600282015481526020016003820154815250508152602001600882016040518060a0016040529081600082018054612912906140d8565b80601f016020809104026020016040519081016040528092919081815260200182805461293e906140d8565b801561298b5780601f106129605761010080835404028352916020019161298b565b820191906000526020600020905b81548152906001019060200180831161296e57829003601f168201915b505050505081526020016001820180546129a4906140d8565b80601f01602080910402602001604051908101604052809291908181526020018280546129d0906140d8565b8015612a1d5780601f106129f257610100808354040283529160200191612a1d565b820191906000526020600020905b815481529060010190602001808311612a0057829003601f168201915b50505050508152602001600282018054612a36906140d8565b80601f0160208091040260200160405190810160405280929190818152602001828054612a62906140d8565b8015612aaf5780601f10612a8457610100808354040283529160200191612aaf565b820191906000526020600020905b815481529060010190602001808311612a9257829003601f168201915b505050505081526020016003820160009054906101000a900460ff166003811115612b03577f4e487b7100000000000000000000000000000000000000000000000000000000600052602160045260246000fd5b6003811115612b3b577f4e487b7100000000000000000000000000000000000000000000000000000000600052602160045260246000fd5b81526020016003820160019054906101000a900473ffffffffffffffffffffffffffffffffffffffff1673ffffffffffffffffffffffffffffffffffffffff1673ffffffffffffffffffffffffffffffffffffffff16815250508152602001600c82018054612ba9906140d8565b80601f0160208091040260200160405190810160405280929190818152602001828054612bd5906140d8565b8015612c225780601f10612bf757610100808354040283529160200191612c22565b820191906000526020600020905b815481529060010190602001808311612c0557829003601f168201915b5050505050815250509050919050565b6000600254905090565b60008060009054906101000a900473ffffffffffffffffffffffffffffffffffffffff16905090565b612c6d6131fb565b612c75612fdd565b600160008373ffffffffffffffffffffffffffffffffffffffff1673ffffffffffffffffffffffffffffffffffffffff1681526020019081526020016000206040518060a0016040529081600082018054612ccf906140d8565b80601f0160208091040260200160405190810160405280929190818152602001828054612cfb906140d8565b8015612d485780601f10612d1d57610100808354040283529160200191612d48565b820191906000526020600020905b815481529060010190602001808311612d2b57829003601f168201915b50505050508152602001600182018054612d61906140d8565b80601f0160208091040260200160405190810160405280929190818152602001828054612d8d906140d8565b8015612dda5780601f10612daf57610100808354040283529160200191612dda565b820191906000526020600020905b815481529060010190602001808311612dbd57829003601f168201915b50505050508152602001600282018054612df3906140d8565b80601f0160208091040260200160405190810160405280929190818152602001828054612e1f906140d8565b8015612e6c5780601f10612e4157610100808354040283529160200191612e6c565b820191906000526020600020905b815481529060010190602001808311612e4f57829003601f168201915b505050505081526020016003820160009054906101000a900460ff166003811115612ec0577f4e487b7100000000000000000000000000000000000000000000000000000000600052602160045260246000fd5b6003811115612ef8577f4e487b7100000000000000000000000000000000000000000000000000000000600052602160045260246000fd5b81526020016003820160019054906101000a900473ffffffffffffffffffffffffffffffffffffffff1673ffffffffffffffffffffffffffffffffffffffff1673ffffffffffffffffffffffffffffffffffffffff16815250509050919050565b612f61612fdd565b600073ffffffffffffffffffffffffffffffffffffffff168173ffffffffffffffffffffffffffffffffffffffff161415612fd1576040517f08c379a0000000000000000000000000000000000000000000000000000000008152600401612fc890613e72565b60405180910390fd5b612fda8161305b565b50565b612fe561311f565b73ffffffffffffffffffffffffffffffffffffffff16613003612c3c565b73ffffffffffffffffffffffffffffffffffffffff1614613059576040517f08c379a000000000000000000000000000000000000000000000000000000000815260040161305090613e92565b60405180910390fd5b565b60008060009054906101000a900473ffffffffffffffffffffffffffffffffffffffff169050816000806101000a81548173ffffffffffffffffffffffffffffffffffffffff021916908373ffffffffffffffffffffffffffffffffffffffff1602179055508173ffffffffffffffffffffffffffffffffffffffff168173ffffffffffffffffffffffffffffffffffffffff167f8be0079c531659141344cd1fd0a4f28419497f9722a3daafe3b4186f6b6457e060405160405180910390a35050565b600033905090565b6040518060c0016040528060008152602001613141613278565b815260200161314e6132be565b815260200161315b613324565b81526020016131686131fb565b8152602001606081525090565b828054613181906140d8565b90600052602060002090601f0160209004810192826131a357600085556131ea565b82601f106131bc57805160ff19168380011785556131ea565b828001600101855582156131ea579182015b828111156131e95782518255916020019190600101906131ce565b5b5090506131f7919061334c565b5090565b6040518060a0016040528060608152602001606081526020016060815260200160006003811115613255577f4e487b7100000000000000000000000000000000000000000000000000000000600052602160045260246000fd5b8152602001600073ffffffffffffffffffffffffffffffffffffffff1681525090565b6040518060400160405280600073ffffffffffffffffffffffffffffffffffffffff168152602001600073ffffffffffffffffffffffffffffffffffffffff1681525090565b60405180608001604052806000151581526020016000151581526020016000151581526020016000600281111561331e577f4e487b7100000000000000000000000000000000000000000000000000000000600052602160045260246000fd5b81525090565b6040518060800160405280606081526020016060815260200160008152602001600081525090565b5b8082111561336557600081600090555060010161334d565b5090565b600061337c61337784613f42565b613f11565b9050808382526020820190508285602086028201111561339b57600080fd5b60005b858110156133cb57816133b188826136ef565b84526020840193506020830192505060018101905061339e565b5050509392505050565b60006133e86133e384613f6e565b613f11565b90508281526020810184848401111561340057600080fd5b61340b848285614096565b509392505050565b60008135905061342281614248565b92915050565b600082601f83011261343957600080fd5b8135613449848260208601613369565b91505092915050565b6000813590506134618161425f565b92915050565b60008135905061347681614276565b92915050565b60008135905061348b81614286565b92915050565b600082601f8301126134a257600080fd5b81356134b28482602086016133d5565b91505092915050565b6000608082840312156134cd57600080fd5b6134d76080613f11565b9050600082013567ffffffffffffffff8111156134f357600080fd5b6134ff84828501613491565b600083015250602082013567ffffffffffffffff81111561351f57600080fd5b61352b84828501613491565b602083015250604061353f848285016136ef565b6040830152506060613553848285016136ef565b60608301525092915050565b60006080828403121561357157600080fd5b61357b6080613f11565b9050600061358b84828501613452565b600083015250602061359f84828501613452565b60208301525060406135b384828501613452565b60408301525060606135c78482850161347c565b60608301525092915050565b6000604082840312156135e557600080fd5b6135ef6040613f11565b905060006135ff84828501613413565b600083015250602061361384828501613413565b60208301525092915050565b600060a0828403121561363157600080fd5b61363b60a0613f11565b9050600082013567ffffffffffffffff81111561365757600080fd5b61366384828501613491565b600083015250602082013567ffffffffffffffff81111561368357600080fd5b61368f84828501613491565b602083015250604082013567ffffffffffffffff8111156136af57600080fd5b6136bb84828501613491565b60408301525060606136cf84828501613467565b60608301525060806136e384828501613413565b60808301525092915050565b6000813590506136fe81614296565b92915050565b60006020828403121561371657600080fd5b600061372484828501613413565b91505092915050565b6000806040838503121561374057600080fd5b600061374e85828601613413565b925050602083013567ffffffffffffffff81111561376b57600080fd5b6137778582860161361f565b9150509250929050565b60006020828403121561379357600080fd5b600082013567ffffffffffffffff8111156137ad57600080fd5b6137b984828501613428565b91505092915050565b60008060008061010085870312156137d957600080fd5b60006137e7878288016135d3565b94505060406137f88782880161355f565b93505060c085013567ffffffffffffffff81111561381557600080fd5b613821878288016134bb565b92505060e085013567ffffffffffffffff81111561383e57600080fd5b61384a87828801613491565b91505092959194509250565b60006020828403121561386857600080fd5b6000613876848285016136ef565b91505092915050565b60008060006060848603121561389457600080fd5b60006138a2868287016136ef565b93505060206138b38682870161347c565b925050604084013567ffffffffffffffff8111156138d057600080fd5b6138dc86828701613491565b9150509250925092565b600080604083850312156138f957600080fd5b6000613907858286016136ef565b925050602083013567ffffffffffffffff81111561392457600080fd5b61393085828601613491565b9150509250929050565b60006139468383613aed565b905092915050565b61395781614004565b82525050565b61396681614004565b82525050565b600061397782613fae565b6139818185613fd1565b93508360208202850161399385613f9e565b8060005b858110156139cf57848403895281516139b0858261393a565b94506139bb83613fc4565b925060208a01995050600181019050613997565b50829750879550505050505092915050565b6139ea81614016565b82525050565b6139f981614072565b82525050565b613a0881614084565b82525050565b6000613a1982613fb9565b613a238185613fe2565b9350613a338185602086016140a5565b613a3c8161420f565b840191505092915050565b6000613a54602683613ff3565b91507f4f776e61626c653a206e6577206f776e657220697320746865207a65726f206160008301527f64647265737300000000000000000000000000000000000000000000000000006020830152604082019050919050565b6000613aba602083613ff3565b91507f4f776e61626c653a2063616c6c6572206973206e6f7420746865206f776e65726000830152602082019050919050565b600061014083016000830151613b066000860182613e17565b506020830151613b196020860182613ce0565b506040830151613b2c6060860182613c8b565b50606083015184820360e0860152613b448282613c21565b9150506080830151848203610100860152613b5f8282613d0f565b91505060a0830151848203610120860152613b7a8282613a0e565b9150508091505092915050565b600061014083016000830151613ba06000860182613e17565b506020830151613bb36020860182613ce0565b506040830151613bc66060860182613c8b565b50606083015184820360e0860152613bde8282613c21565b9150506080830151848203610100860152613bf98282613d0f565b91505060a0830151848203610120860152613c148282613a0e565b9150508091505092915050565b60006080830160008301518482036000860152613c3e8282613a0e565b91505060208301518482036020860152613c588282613a0e565b9150506040830151613c6d6040860182613e17565b506060830151613c806060860182613e17565b508091505092915050565b608082016000820151613ca160008501826139e1565b506020820151613cb460208501826139e1565b506040820151613cc760408501826139e1565b506060820151613cda60608501826139ff565b50505050565b604082016000820151613cf6600085018261394e565b506020820151613d09602085018261394e565b50505050565b600060a0830160008301518482036000860152613d2c8282613a0e565b91505060208301518482036020860152613d468282613a0e565b91505060408301518482036040860152613d608282613a0e565b9150506060830151613d7560608601826139f0565b506080830151613d88608086018261394e565b508091505092915050565b600060a0830160008301518482036000860152613db08282613a0e565b91505060208301518482036020860152613dca8282613a0e565b91505060408301518482036040860152613de48282613a0e565b9150506060830151613df960608601826139f0565b506080830151613e0c608086018261394e565b508091505092915050565b613e2081614068565b82525050565b613e2f81614068565b82525050565b6000602082019050613e4a600083018461395d565b92915050565b60006020820190508181036000830152613e6a818461396c565b905092915050565b60006020820190508181036000830152613e8b81613a47565b9050919050565b60006020820190508181036000830152613eab81613aad565b9050919050565b60006020820190508181036000830152613ecc8184613b87565b905092915050565b60006020820190508181036000830152613eee8184613d93565b905092915050565b6000602082019050613f0b6000830184613e26565b92915050565b6000604051905081810181811067ffffffffffffffff82111715613f3857613f376141e0565b5b8060405250919050565b600067ffffffffffffffff821115613f5d57613f5c6141e0565b5b602082029050602081019050919050565b600067ffffffffffffffff821115613f8957613f886141e0565b5b601f19601f8301169050602081019050919050565b6000819050602082019050919050565b600081519050919050565b600081519050919050565b6000602082019050919050565b600082825260208201905092915050565b600082825260208201905092915050565b600082825260208201905092915050565b600061400f82614048565b9050919050565b60008115159050919050565b600081905061403082614220565b919050565b600081905061404382614234565b919050565b600073ffffffffffffffffffffffffffffffffffffffff82169050919050565b6000819050919050565b600061407d82614022565b9050919050565b600061408f82614035565b9050919050565b82818337600083830152505050565b60005b838110156140c35780820151818401526020810190506140a8565b838111156140d2576000848401525b50505050565b600060028204905060018216806140f057607f821691505b60208210811415614104576141036141b1565b5b50919050565b600061411582614068565b91507fffffffffffffffffffffffffffffffffffffffffffffffffffffffffffffffff82141561414857614147614153565b5b600182019050919050565b7f4e487b7100000000000000000000000000000000000000000000000000000000600052601160045260246000fd5b7f4e487b7100000000000000000000000000000000000000000000000000000000600052602160045260246000fd5b7f4e487b7100000000000000000000000000000000000000000000000000000000600052602260045260246000fd5b7f4e487b7100000000000000000000000000000000000000000000000000000000600052604160045260246000fd5b6000601f19601f8301169050919050565b6004811061423157614230614182565b5b50565b6003811061424557614244614182565b5b50565b61425181614004565b811461425c57600080fd5b50565b61426881614016565b811461427357600080fd5b50565b6004811061428357600080fd5b50565b6003811061429357600080fd5b50565b61429f81614068565b81146142aa57600080fd5b5056fea26469706673582212207f57dcf7693fd140330197cd528323a11c6a2552bbd87239571c1d68ccefee2464736f6c63430008000033",
  "devdoc": {
    "kind": "dev",
    "methods": {
      "owner()": {
        "details": "Returns the address of the current owner."
      },
      "renounceOwnership()": {
        "details": "Leaves the contract without owner. It will not be possible to call `onlyOwner` functions. Can only be called by the current owner. NOTE: Renouncing ownership will leave the contract without an owner, thereby disabling any functionality that is only available to the owner."
      },
      "transferOwnership(address)": {
        "details": "Transfers ownership of the contract to a new account (`newOwner`). Can only be called by the current owner."
      }
    },
    "version": 1
  },
  "userdoc": {
    "kind": "user",
    "methods": {},
    "version": 1
  },
  "storageLayout": {
    "storage": [
      {
        "astId": 7,
        "contract": "src/Ride.sol:Ride",
        "label": "_owner",
        "offset": 0,
        "slot": "0",
        "type": "t_address"
      },
      {
        "astId": 1226,
        "contract": "src/Ride.sol:Ride",
        "label": "_vehicles",
        "offset": 0,
        "slot": "1",
        "type": "t_mapping(t_address,t_struct(VEHICLE_INFO)1221_storage)"
      },
      {
        "astId": 907,
        "contract": "src/Ride.sol:Ride",
        "label": "rideCount",
        "offset": 0,
        "slot": "2",
        "type": "t_uint256"
      },
      {
        "astId": 957,
        "contract": "src/Ride.sol:Ride",
        "label": "_rides",
        "offset": 0,
        "slot": "3",
        "type": "t_mapping(t_uint256,t_struct(RIDE)952_storage)"
      }
    ],
    "types": {
      "t_address": {
        "encoding": "inplace",
        "label": "address",
        "numberOfBytes": "20"
      },
      "t_bool": {
        "encoding": "inplace",
        "label": "bool",
        "numberOfBytes": "1"
      },
      "t_enum(VEHICLE_TYPE)1209": {
        "encoding": "inplace",
        "label": "enum Vehicle.VEHICLE_TYPE",
        "numberOfBytes": "1"
      },
      "t_enum(appUser)911": {
        "encoding": "inplace",
        "label": "enum Ride.appUser",
        "numberOfBytes": "1"
      },
      "t_mapping(t_address,t_struct(VEHICLE_INFO)1221_storage)": {
        "encoding": "mapping",
        "key": "t_address",
        "label": "mapping(address => struct Vehicle.VEHICLE_INFO)",
        "numberOfBytes": "32",
        "value": "t_struct(VEHICLE_INFO)1221_storage"
      },
      "t_mapping(t_uint256,t_struct(RIDE)952_storage)": {
        "encoding": "mapping",
        "key": "t_uint256",
        "label": "mapping(uint256 => struct Ride.RIDE)",
        "numberOfBytes": "32",
        "value": "t_struct(RIDE)952_storage"
      },
      "t_string_storage": {
        "encoding": "bytes",
        "label": "string",
        "numberOfBytes": "32"
      },
      "t_struct(RIDE)952_storage": {
        "encoding": "inplace",
        "label": "struct Ride.RIDE",
        "members": [
          {
            "astId": 937,
            "contract": "src/Ride.sol:Ride",
            "label": "id",
            "offset": 0,
            "slot": "0",
            "type": "t_uint256"
          },
          {
            "astId": 940,
            "contract": "src/Ride.sol:Ride",
            "label": "users",
            "offset": 0,
            "slot": "1",
            "type": "t_struct(USERS)916_storage"
          },
          {
            "astId": 943,
            "contract": "src/Ride.sol:Ride",
            "label": "status",
            "offset": 0,
            "slot": "3",
            "type": "t_struct(STATUS)926_storage"
          },
          {
            "astId": 946,
            "contract": "src/Ride.sol:Ride",
            "label": "ride",
            "offset": 0,
            "slot": "4",
            "type": "t_struct(RIDE_DETAILS)935_storage"
          },
          {
            "astId": 949,
            "contract": "src/Ride.sol:Ride",
            "label": "vehicle",
            "offset": 0,
            "slot": "8",
            "type": "t_struct(VEHICLE_INFO)1221_storage"
          },
          {
            "astId": 951,
            "contract": "src/Ride.sol:Ride",
            "label": "timestamp",
            "offset": 0,
            "slot": "12",
            "type": "t_string_storage"
          }
        ],
        "numberOfBytes": "416"
      },
      "t_struct(RIDE_DETAILS)935_storage": {
        "encoding": "inplace",
        "label": "struct Ride.RIDE_DETAILS",
        "members": [
          {
            "astId": 928,
            "contract": "src/Ride.sol:Ride",
            "label": "pickup",
            "offset": 0,
            "slot": "0",
            "type": "t_string_storage"
          },
          {
            "astId": 930,
            "contract": "src/Ride.sol:Ride",
            "label": "destination",
            "offset": 0,
            "slot": "1",
            "type": "t_string_storage"
          },
          {
            "astId": 932,
            "contract": "src/Ride.sol:Ride",
            "label": "distance",
            "offset": 0,
            "slot": "2",
            "type": "t_uint256"
          },
          {
            "astId": 934,
            "contract": "src/Ride.sol:Ride",
            "label": "price",
            "offset": 0,
            "slot": "3",
            "type": "t_uint256"
          }
        ],
        "numberOfBytes": "128"
      },
      "t_struct(STATUS)926_storage": {
        "encoding": "inplace",
        "label": "struct Ride.STATUS",
        "members": [
          {
            "astId": 918,
            "contract": "src/Ride.sol:Ride",
            "label": "isCancelled",
            "offset": 0,
            "slot": "0",
            "type": "t_bool"
          },
          {
            "astId": 920,
            "contract": "src/Ride.sol:Ride",
            "label": "isComplete",
            "offset": 1,
            "slot": "0",
            "type": "t_bool"
          },
          {
            "astId": 922,
            "contract": "src/Ride.sol:Ride",
            "label": "isConfirmed",
            "offset": 2,
            "slot": "0",
            "type": "t_bool"
          },
          {
            "astId": 925,
            "contract": "src/Ride.sol:Ride",
            "label": "wasCancelledBy",
            "offset": 3,
            "slot": "0",
            "type": "t_enum(appUser)911"
          }
        ],
        "numberOfBytes": "32"
      },
      "t_struct(USERS)916_storage": {
        "encoding": "inplace",
        "label": "struct Ride.USERS",
        "members": [
          {
            "astId": 913,
            "contract": "src/Ride.sol:Ride",
            "label": "customer",
            "offset": 0,
            "slot": "0",
            "type": "t_address"
          },
          {
            "astId": 915,
            "contract": "src/Ride.sol:Ride",
            "label": "driver",
            "offset": 0,
            "slot": "1",
            "type": "t_address"
          }
        ],
        "numberOfBytes": "64"
      },
      "t_struct(VEHICLE_INFO)1221_storage": {
        "encoding": "inplace",
        "label": "struct Vehicle.VEHICLE_INFO",
        "members": [
          {
            "astId": 1211,
            "contract": "src/Ride.sol:Ride",
            "label": "vehicle_no",
            "offset": 0,
            "slot": "0",
            "type": "t_string_storage"
          },
          {
            "astId": 1213,
            "contract": "src/Ride.sol:Ride",
            "label": "RC",
            "offset": 0,
            "slot": "1",
            "type": "t_string_storage"
          },
          {
            "astId": 1215,
            "contract": "src/Ride.sol:Ride",
            "label": "vehicleImages",
            "offset": 0,
            "slot": "2",
            "type": "t_string_storage"
          },
          {
            "astId": 1218,
            "contract": "src/Ride.sol:Ride",
            "label": "vehicleType",
            "offset": 0,
            "slot": "3",
            "type": "t_enum(VEHICLE_TYPE)1209"
          },
          {
            "astId": 1220,
            "contract": "src/Ride.sol:Ride",
            "label": "driver",
            "offset": 1,
            "slot": "3",
            "type": "t_address"
          }
        ],
        "numberOfBytes": "128"
      },
      "t_uint256": {
        "encoding": "inplace",
        "label": "uint256",
        "numberOfBytes": "32"
      }
    }
  }
}